:100000000C9424040C9438220C9411220C94EA21B0
:100010000C94C3210C944C040C944C040C949C211F
:100020000C944C040C942B210C94211D0C94901DC9
:100030000C944C040C944C040C944C040C944C0400
:100040000C944C040C944C040C944C040C944C04F0
:100050000C944C040C944C040C944C040C94C21F4F
:100060000C944C040C944C040C944C040C944C04D0
:100070000C944C040C944C040C944C040C944C04C0
:100080000C944C040C944C040C944C040C944C04B0
:100090000C940C200C944C040C944C040C944C04C4
:1000A0000C944C040C944C040C944C045361740058
:1000B00046726900546875005765640054756500A0
:1000C0004D6F6E00446563004E6F76004F637400A1
:1000D00053657000417567004A756C004A756E0083
:1000E0004D617900417072004D6172004665620099
:1000F00053756E0025327500616D00706D002530FE
:1001000032753A253032750000000000003E5B4F2A
:100110005B3E3E6B4F6B3E1C3E7C3E1C183C7E3C67
:10012000181C577D571C1C5E7F5E1C00183C180075
:10013000FFE7C3E7FF0018241800FFE7DBE7FF3005
:10014000483A060E2629792926407F050507407F73
:1001500005253F5A3CE73C5A7F3E1C1C08081C1CE6
:100160003E7F14227F22145F5F005F5F06097F01DC
:100170007F006689956A606060606094A2FFA294C7
:1001800008047E040810207E201008082A1C080895
:100190001C2A08081E101010100C1E0C1E0C3038E3
:1001A0003E3830060E3E0E06000000000000005FE4
:1001B00000000007000700147F147F14242A7F2A00
:1001C00012231308646236495620500008070300C2
:1001D000001C2241000041221C002A1C7F1C2A080E
:1001E000083E080800807030000808080808000071
:1001F00060600020100804023E5149453E00427FE5
:10020000400072494949462141494D331814127F33
:100210001027454545393C4A4949314121110907D3
:100220003649494936464949291E00001400000054
:100230004034000000081422411414141414004126
:1002400022140802015909063E415D594E7C1211E3
:10025000127C7F494949363E414141227F4141411B
:100260003E7F494949417F090909013E4141517396
:100270007F0808087F00417F41002040413F017F07
:10028000081422417F404040407F021C027F7F04CF
:1002900008107F3E4141413E7F090909063E415118
:1002A000215E7F09192946264949493203017F0108
:1002B000033F4040403F1F2040201F3F4038403F09
:1002C000631408146303047804036159494D43001F
:1002D0007F4141410204081020004141417F040256
:1002E00001020440404040400003070800205454ED
:1002F00078407F28444438384444442838444428CB
:100300007F385454541800087E090218A4A49C781D
:100310007F0804047800447D40002040403D007F79
:100320001028440000417F40007C047804787C0859
:100330000404783844444438FC182424181824242D
:1003400018FC7C08040408485454542404043F4412
:10035000243C4040207C1C2040201C3C4030403C41
:1003600044281028444C9090907C4464544C4400A1
:100370000836410000007700000041360800020105
:100380000204023C2623263C1EA1A161123A4040F1
:10039000207A38545455592155557941225454786E
:1003A00042215554784020545579400C1E52721207
:1003B0003955555559395454545939555454580090
:1003C00000457C410002457D420001457C407D1294
:1003D00011127DF0282528F07C54554500205454F6
:1003E0007C547C0A097F4932494949323A444444A1
:1003F0003A324A4848303A4141217A3A42402078DC
:10040000009DA0A07D3D4242423D3D4040403D3CDC
:1004100024FF2424487E4943662B2FFC2F2BFF0901
:1004200029F620C0887E09032054547941000044F5
:100430007D413048484A32384040227A007A0A0AE0
:10044000727D0D19317D2629292F28262929292653
:1004500030484D4020380808080808080808382F98
:1004600010C8ACBA2F102834FA00007B0000081422
:100470002A142222142A14085500550055AA55AAF8
:1004800055AAFF55FF55FF000000FF00101010FF98
:1004900000141414FF001010FF00FF1010F010F0F3
:1004A000141414FC001414F700FF0000FF00FF14E4
:1004B00014F404FC141417101F10101F101F141430
:1004C000141F00101010F0000000001F101010107A
:1004D0001F10101010F010000000FF10101010106E
:1004E00010101010FF10000000FF140000FF00FFAC
:1004F00000001F10170000FC04F414141710171448
:1005000014F404F40000FF00F71414141414141469
:10051000F700F7141414171410101F101F141414DC
:10052000F4141010F010F000001F101F0000001F46
:1005300014000000FC140000F010F01010FF10FF79
:10054000141414FF141010101F00000000F010FF0E
:10055000FFFFFFFFF0F0F0F0F0FFFFFF00000000F2
:1005600000FFFF0F0F0F0F0F3844443844FC4A4A76
:100570004A347E02020606027E027E02635549412B
:10058000633844443C04407E201E2006027E020262
:1005900099A5E7A5991C2A492A1C4C7201724C3076
:1005A0004A4D4D303048784830BC625A463D3E494D
:1005B0004949007E0101017E2A2A2A2A2A44445FF1
:1005C000444440514A444040444A51400000FF01E5
:1005D00003E080FF000008086B6B083612362436F3
:1005E000060F090F06000018180000001010003058
:1005F00040FF0101001F01011E00191D1712003CE0
:100600003C3C3C0000000000000103070F1F3F7F3F
:100610000080C0E0F0F8FCFE0000000200090F00BE
:1006200000030401000C00000000000000000000B6
:1006300000000000000000080B0002020200000998
:10064000040000010202000005240010010524013D
:100650000101042402060524060001070581031098
:10066000004009040100020A0000000705020240E0
:100670000000070583024000000403090412010082
:1006800002EF0201404123368000010102030141D3
:10069000726475696E6F204C4C43004172647569D9
:1006A0006E6F204C656F6E6172646F000706050403
:1006B0000100080A0B0C0D090000000024002700AF
:1006C0002A002D003000DB40A4A62EAF2000A1C8D8
:1006D000D300408DAED580A8000000002500280082
:1006E0002B002E00310026206D6963313539006200
:1006F0007920306D696B6572300044696769746197
:100700006C20436C6F636B0031373A33343A3033CB
:10071000004E6F762032352032303230000000003B
:10072000002300260029002C002F000203010004F2
:100730000607060405060706070301020004040471
:100740000404030405020202020403020202020678
:100750000606060606040402020204040408020156
:1007600010408040102040804080080204018040FA
:1007700020100201108010204040204261636B0075
:1007800044696D002A2000427269676874002A205B
:10079000004272696768746E657373004A616E0027
:1007A0004261636B0053657420446174650042616B
:1007B000636B00253032643A25303264005365742F
:1007C0002054696D650031326872003234687200FD
:1007D00031322F32346872206D6F6465004261637C
:1007E0006B00536574204272696768746E65737339
:1007F0000053657420446174650053657420546926
:100800006D65005365742031322F323468206D6F6E
:1008100064650053657474696E67730025303264D3
:100820003A25303264256300253032643A2530326F
:1008300064002200FF21001F1C1F1E1F1E1F1F1E01
:100840001F1E1F009422BD2D11241FBECFEFDAE022
:10085000DEBFCDBF11E0A0E0B1E0E2EFF8E602C0FC
:1008600005900D92AC39B107D9F723E0ACE9B1E0BE
:1008700001C01D92A136B207E1F714E0C3E2D4E053
:1008800004C02197FE010E943533C232D107C9F757
:100890000E94ED230C946C340C94000091E0909332
:1008A0009E0280939D0210929C0210929B020895DA
:1008B000089590919A02809199022FEF3FEF981737
:1008C00048F4E92FF0E0E758FD4F208130E09F5FCA
:1008D00090939A02C901089590919A028091990289
:1008E0002FEF3FEF981748F4E92FF0E0E758FD4F5E
:1008F000208130E09F5F90939A02C9010895FC0126
:1009000080914802882311F13FB7F89482E08093E8
:10091000E9002091F200822F90E01816190614F4D5
:1009200081E090E0882339F0289844E6409347021C
:100930004091F1004083222339F02091F2002111EF
:1009400003C02BE62093E8003FBF08958FEF9FEF91
:1009500008952FB7F89483E08093E9009091E80020
:10096000892F807295FF04C09091F20080E4891B6A
:100970002FBF089580913F0281110DC082E08093C6
:100980003B0284E080933C0210923E0210923D02B2
:1009900081E080933F028BE392E0089508950895EB
:1009A0004091070250910802209105023091060201
:1009B00042175307B4F49091E8009570E1F39091D9
:1009C000E80092FD19C08093F10080910702909198
:1009D000080201968F739927892B19F48EEF809363
:1009E000E800809107029091080201969093080216
:1009F0008093070281E0089580E00895DF92EF92EE
:100A0000FF920F931F93CF93DF93D82E8A01EB01B0
:100A10007B01E40EF51ECE15DF0559F0D7FE12C09E
:100A2000FE0184910E94D00421968111F4CF0FEF32
:100A30001FEFC801DF91CF911F910F91FF90EF90B1
:100A4000DF9008958881EECF0F931F93CF93DF93AC
:100A50001F92CDB7DEB782E0898342E450E067E3BE
:100A600076E080E80E94FE040E94BA04DC0112963F
:100A70000D911C910115110589F0D801ED91FC91A2
:100A80000280F381E02DBE016F5F7F4FC8010995A1
:100A900097FD04C0F80100851185ECCF89810F9086
:100AA000DF91CF911F910F910895615030F0209107
:100AB000F100FC0120830196F8CF289884E680930A
:100AC00047020895EF92FF920F931F93CF93DF9306
:100AD0008C017B01D0E0C0E0F701EC0FFD1F6491B9
:100AE000662361F0D801ED91FC910190F081E02D39
:100AF000C8010995892B11F02196EECFCE01DF9127
:100B0000CF911F910F91FF90EF900895AF92BF92F8
:100B1000CF92DF92EF92FF920F931F93CF93DF93C9
:100B20006C017B018B01040F151FEB015E01AE18F8
:100B3000BF08C017D10759F06991D601ED91FC911A
:100B40000190F081E02DC6010995892B79F7C50147
:100B5000DF91CF911F910F91FF90EF90DF90CF9099
:100B6000BF90AF900895CF93DF931F92CDB7DEB7BC
:100B70006983DC01ED91FC910280F381E02D41E07D
:100B800050E0BE016F5F7F4F09950F90DF91CF91CD
:100B9000089583E08093E9008091F200882319F0A2
:100BA0008AE38093E80008950E94A90490E00895E4
:100BB000CF93DF931F92CDB7DEB7FC018485958577
:100BC00097FD08C02FEF3FEF358724870F90DF9107
:100BD000CF910895CE0101960E947F04019719F4E8
:100BE000898190E0F3CF8FEF9FEFF0CF0F931F93AA
:100BF000CF93DF931F92CDB7DEB78C01FC018485C4
:100C0000958597FF0BC0CE0101960E947F04019746
:100C100071F4898190E0F80195878487F8018485D3
:100C200095850F90DF91CF911F910F9108958FEFD0
:100C30009FEFF1CFFC018485958597FD0BC09FB791
:100C4000F89482E08093E9008091F2009FBF90E0E9
:100C5000019608959FB7F89482E08093E90080910F
:100C6000F2009FBF90E0089581508F3008F047C098
:100C7000E82FF0E0E25CF94F0C9435335B065F0639
:100C80004D06530657067F067F067F0662066806F6
:100C90006C06700676067F067A06809180008F7754
:100CA000809380000895809180008F7DF9CF80919E
:100CB0008000877FF5CF84B58F7784BD089584B594
:100CC0008F7DFBCF809190008F7780939000089567
:100CD000809190008F7DF9CF80919000877FF5CF34
:100CE0008091C0008F778093C00008958091C000EC
:100CF0008F7DF9CF8091C200877F8093C2000895D5
:100D0000CF93DF93282F30E0F901E85EF94F84910B
:100D1000F901E45AF84FD491F901E35CF84FC4911A
:100D2000CC23A1F081110E943406EC2FF0E0EE0FED
:100D3000FF1FE35EF84FA591B491EC91ED2381E0A4
:100D400090E009F480E0DF91CF91089580E090E099
:100D5000FACF1F93CF93DF93282F30E0F901E85E9D
:100D6000F94F8491F901E45AF84FD491F901E35C09
:100D7000F84FC491CC23A9F0162F81110E9434069C
:100D8000EC2FF0E0EE0FFF1FE852F94FA591B49160
:100D90008FB7F894EC91111108C0D095DE23DC9345
:100DA0008FBFDF91CF911F910895DE2BF8CFCF93A6
:100DB000DF9390E0FC01E45AF84F2491835C984F54
:100DC000FC0184918823D1F090E0880F991FFC01E9
:100DD000E854F94FA591B491FC01E852F94FC5913F
:100DE000D491623071F49FB7F8943C91822F809532
:100DF00083238C93E8812E2B28839FBFDF91CF9193
:100E000008958FB7F894EC912E2B2C938FBFF6CFCB
:100E10003FB7F8948091010290910202A0910302E1
:100E2000B091040226B5A89B05C02F3F19F001968A
:100E3000A11DB11D3FBFBA2FA92F982F8827BC0134
:100E4000CD01620F711D811D911D42E0660F771F5C
:100E5000881F991F4A95D1F708958F929F92AF925C
:100E6000BF92CF92DF92EF92FF924B015C010E9402
:100E700008076B017C010E9408076C197D098E0927
:100E80009F09683E734081059105A8F321E0821A0D
:100E90009108A108B10888EEC80E83E0D81EE11CB5
:100EA000F11C81149104A104B10429F7FF90EF9083
:100EB000DF90CF90BF90AF909F908F9008958F92CA
:100EC0009F92AF92BF92CF92DF92EF92FF920F93D9
:100ED0001F93CF93DF936C017B018A0180910B01FB
:100EE000882309F45CC080914802882309F457C024
:100EF00080910B0280FF05C08091E00082608093AA
:100F0000E000E801B12C8AEFA82E93E0892E2AE3B5
:100F1000922E209711F4BB20D9F10E94A9048111CF
:100F20000AC0AA94AA20D9F161E070E080E090E0C4
:100F30000E942D07EECF8C171D0611F00CF08C2FA0
:100F40009FB7F8948092E9002091E80025FD02C047
:100F50009FBFDFCF282F30E0C21BD30BF70181509A
:100F600020F041914093F100FACFE20EF31EBB2036
:100F700021F09092E800B12CEBCF8091E80085FD44
:100F8000E7CF9092E800BB24B394209709F3F3CF06
:100F90005D9884E680930A02101611063CF081E009
:100FA00090E0F6019383828310E000E0C801DF91B6
:100FB000CF911F910F91FF90EF90DF90CF90BF9056
:100FC000AF909F908F900895EF92FF920F931F9391
:100FD000CF93DF93EC01EC80FD806E157F050CF064
:100FE00070C057FF04C0240F351F50E040E08E81D1
:100FF0009F81FA01E20FF31F8E179F071CF49C01DB
:10100000241B350B121613060CF05BC0922F842F95
:101010008695869586958E9DD0018F9DB00D112465
:101020006A0F7B1FAE8DBF8DA60FB71F477049F1AA
:1010300088E0841B482F682F70E0FB01E05FF94FC8
:10104000E491281708F063C0621B71092FEF30E0AC
:1010500002C0359527956A95E2F7E2230130110524
:1010600039F0B0F10230110561F58C91E82702C02A
:101070008C91E82BEC93941720F12C813D81A20FE9
:10108000B31FE92FE41BE83078F00230110521F599
:101090008E2F9C9190959C932C813D81A20FB31F24
:1010A00088508830B0F7E770EE2359F0F0E0E85F41
:1010B000F94FE49101301105F9F010F102301105FA
:1010C00019F1DF91CF911F910F91FF90EF9008954B
:1010D000E0958C91E823CECF81E00115110509F44C
:1010E00080E081959E2F8C932C813D81A20FB31FB0
:1010F00098509830C0F7D7CF8C91E82BEC93E1CF84
:10110000E0958C91E823FACF8C91E827F7CF013056
:10111000110509F4ADCFE0F20230110509F4A5CFB5
:10112000AE0DBF1DAECF0F931F93CF93DF9377FF0D
:1011300004C0260F371F70E060E0DC011496CD91EB
:10114000DC91FB01E20FF31FCE17DF071CF49E01B9
:10115000261B370B121613064CF5FA0157FD37966E
:10116000A3E0F595E795AA95E1F7EC9FD001ED9FF7
:10117000B00DFC9FB00D11246A0F7B1FDC015E9641
:10118000ED91FC91E60FF71F4770552781E090E045
:1011900001C0880F4A95EAF7482F0130110559F030
:1011A000A8F02E0F3F1F02301105E1F0DF91CF9123
:1011B0001F910F9108952E0F3F1FE217F307B1F310
:1011C0008191DF011197842B8C93F7CF80952E0F9F
:1011D0003F1FE217F30751F39191DF011197982315
:1011E0009C93F7CFE217F30709F38191DF01119781
:1011F00084278C93F7CF0F931F93FA01DC01559648
:101200004C9155974230E9F04330A1F1413061F5FE
:1012100014964D915C91DA01AE1BBF0BFD01E21BF0
:10122000F30B77FD0BC0DC0116964D915C916417B2
:10123000750724F4AB01BF010E9493081F910F9121
:10124000089514964D915C91DA01A61BB70BBD0170
:1012500061507109DC0116964D915C91DA01AE1B6B
:10126000BF0BFD01E21BF30B77FDE8CFAF010E943E
:10127000E407E4CF16964D915C91DA01A61BB70BFB
:10128000BD0161507109CDCF0F931F93FA01DC01AD
:1012900055964C9155974230A9F0433091F1413029
:1012A00019F514964D915C91DA01AE1BBF0BFD014F
:1012B0003197F7FD04C0AB01BF010E94E4071F9105
:1012C0000F91089514964D915C91DA01A61BB70B0E
:1012D000BD01DC0116964D915C91DA01AE1BBF0B8E
:1012E000FD013197621B730BF7FDE9CFDC01169608
:1012F0004D915C91E417F50714F7AF010E94930834
:10130000DECF16964D915C91DA01A61BB70BBD019D
:10131000621B730BCECFFC0177FD64C08085918585
:10132000681779070CF05EC057FD5CC08285938515
:10133000481759070CF056C085898230B1F08330C8
:1013400029F1813041F484819581841B950BAB0197
:10135000BC01615071092130310509F108F443C025
:101360002230310509F463C0089584819581DC0140
:10137000A61BB70BBD016150710986819781DC0105
:10138000A41BB50BAD0141505109E5CF8681978172
:10139000861B970BBA01AC0141505109DCCFCA0141
:1013A00057FD0796A3E095958795AA95E1F7A48147
:1013B000B5818A9F90018B9F300D9A9F300D11242B
:1013C000620F731F068CF78DE02DE60FF71F477035
:1013D000552721E030E001C0220F4A95EAF78081CD
:1013E000822B80830895CA0157FD079633E09595B7
:1013F00087953A95E1F7A481B5818A9F90018B9FEB
:10140000300D9A9F300D1124620F731F068CF78DDB
:10141000E02DE60FF71F4770552781E090E001C0EF
:10142000880F4A95EAF7809590818923DACFCA011F
:1014300057FD079623E0959587952A95E1F7A481B6
:10144000B5818A9F90018B9F300D9A9F300D11249A
:10145000620F731F068CF78DE02DE60FF71F4770A4
:10146000552721E030E001C0220F4A95EAF780813C
:101470008227B7CF8EBD00000DB407FEFDCF8EB51D
:10148000089508958CBD9DBD08950895FC01637075
:10149000658B8481958126813781613039F0633095
:1014A00029F09187808733872287089531872087A5
:1014B0009387828708952F923F924F925F926F9207
:1014C0007F928F929F92AF92BF92CF92DF92EF92D4
:1014D000FF920F931F93CF93DF93CDB7DEB769973A
:1014E0000FB6F894DEBF0FBECDBF998F888F5B011A
:1014F0001A01D22E1F830E833701C982DC01589650
:101500002D913C9159972115310509F004C1189688
:101510008D919C911997681779070CF0C0C11A96A4
:101520008D919C911B97481759070CF0B8C18C2CD2
:10153000912CFB0126E0C29EE00DF11D1124F987DC
:10154000E8871E161F060CF0AAC1A40193E0440F01
:10155000551F9A95E1F75D874C87CA01820D931D4F
:10156000181619060CF09BC157968C91811104C076
:101570005FEA5D1508F4D394A88DB98DED91FC91C7
:1015800011970284F385E02DCD010995F50135967B
:10159000F98BE88BBB82AA82250188E091E08A1949
:1015A0009B099C0145E0D49E200D311D11243B8BED
:1015B0002A8BEA89FB89E40DF51D24913D822C825A
:1015C000D12CC12C622F70E07F876E87E88DF98D5A
:1015D000A081B18120FF7CC0F981F13009F069C0A0
:1015E0001C96ED91FC912E813F81A1014C0D5D1D5A
:1015F000B201888D998D0995EE85FF85F595E79562
:101600002E2F4FEFC41AD40A6C817D81680D791D8D
:101610007D836C8378E0C716D104A1F68FEF481A5A
:10162000580AAA81BB81A80DB91DBB83AA83E8898A
:10163000F989E415F50509F0BCCF2E813F81261507
:101640003705A9F0A88DB98DED91FC91B981B13024
:1016500009F051C0B5016B5F7F4F0088F189E02D23
:10166000830128E030E0A101888D998D0995A88D2E
:10167000B98DED91FC9111970688F789E02DCD0188
:1016800069960FB6F894DEBF0FBECDBFDF91CF9144
:101690001F910F91FF90EF90DF90CF90BF90AF9090
:1016A0009F908F907F906F905F904F903F902F9082
:1016B00009941E96ED91FC91EE80FF8084019401C7
:1016C0004C815D816A817B81888D998D099594CF4C
:1016D0002E813F812615370509F48ECF39813130AF
:1016E00029F41C96ED91FC9193017FCF1E96ED910C
:1016F000FC917301E3CF68857985681979090684BF
:10170000F785E02D73010C851D859401A101888D5D
:10171000998D0995ACCFF901349694913297459102
:101720005491D91AB7E0DB9E400D511D1124F901E7
:1017300025913491398B288BFA0145905490FA0108
:10174000329664903196C4903296149131960491F9
:101750003981323008F48AC0E12E012E000CFF08D6
:10176000402F002E000C550B59874887A88DB98D46
:10177000ED91FC9111970284F385E02DCD0109953F
:10178000B9818B2E912CE89CC001E99C900DF89CAE
:10179000900D1124FC01EA0DFB1DFF87EE871C82D2
:1017A000D12C712C9B868A869101200F311D07FD5B
:1017B0003A953D8B2C8BA501410F511D17FD5A9574
:1017C0005F8B4E8B7C1408F052CF872D90E04885BC
:1017D0005985480F591F6A857B85469F9001479F11
:1017E000300D569F300D1124D901A20DB31DBD87B8
:1017F000AC87EE85FF85FB83EA83B12CA12C2C8975
:101800003D89280F391F3B8B2A8B8C818A0DA614AA
:1018100008F040C0877041F4C2010196E889F98957
:10182000E40DF51DD4902C01D7FE15C0A88DB98DFF
:10183000ED91FC91B981B130F1F40484F585E02D8E
:101840002E813F814A895B896E897F896A0D7B1D64
:10185000888D998D0995DD0CEFEFAE1ABE0A2A81AD
:101860003B81280D391D3B832A83CFCF19861886EB
:10187000F12CE12C7BCF0684F785E02DEE80FF80F4
:10188000840194014C855D856A817B81888D998D69
:101890000995E1CF3C81360D3C83739493CF6996D3
:1018A0000FB6F894DEBF0FBECDBFDF91CF911F9171
:1018B0000F91FF90EF90DF90CF90BF90AF909F90EF
:1018C0008F907F906F905F904F903F902F900895F2
:1018D000AF92BF92CF92EF92FF920F931F93CF934D
:1018E000DF93EC01262F888D998D009709F04FC06A
:1018F0006A30C9F41D861C868C8998E0899F900106
:1019000011248E859F85820F931F9F878E8781E08C
:1019100090E0DF91CF911F910F91FF90EF90CF90CA
:10192000BF90AF9008956D3091F3CC888E89882355
:10193000C1F08C859D85E6E0CE9E800D911D112421
:10194000488559854817590764F44E855F851D867B
:101950001C86F8E0CF9EC0011124840F951F9F873D
:101960008E87EA88FB88088919894E855F856C8592
:101970007D85CE010E945B0A2C898C859D8536E091
:10198000239F800D911D11249D878C87C0CF6A30C5
:1019900069F41D861C86FC013696E4912C898E859F
:1019A0009F85E29F800D911D1124AFCF6D3009F40A
:1019B000AECFFC0134963491631708F4A8CF31966A
:1019C000E491E61708F4A3CFFC01329645915491B7
:1019D000E62FE31BFF0B37E03E9F50013F9FB00C0B
:1019E0001124A40EB51EF501329634913196E4917E
:1019F0003323A1F1EE2391F1CC88F5013596E491E2
:101A00004E89442301F10E2E000CFF0BE30FF11D54
:101A1000CE9EA001CF9E500D11246C857D85460F72
:101A2000571F68857985641775076CF44E855F8547
:101A30001D861C860696FC018491C89E400D511D92
:101A400011245F874E87EA88FB88088919894E85AB
:101A50005F856C857D85CE010E945B0AF501349619
:101A6000E4912C898C859D85E29F800D911D112428
:101A70008BCF6F927F928F929F92AF92BF92CF92B5
:101A8000DF92EF92FF920F931F93CF93DF93EC01BE
:101A90006B015A0139014801E881F9810284F3851B
:101AA000E02D0995E881F9810288F389E02D87010D
:101AB0009301A501B601CE010995A501480D591D57
:101AC00041505109E881F9810288F389E02D9301A1
:101AD000B601CE010995E881F9810088F189E02DF0
:101AE0009401A501B601CE010995C60CD71CB6011B
:101AF00061507109E881F9810088F189E02D940134
:101B0000A501CE010995E881F9810688F789E02DC4
:101B1000CE01DF91CF911F910F91FF90EF90DF9059
:101B2000CF90BF90AF909F908F907F906F900994CF
:101B30006F927F928F929F92AF92BF92CF92DF92DD
:101B4000EF92FF920F931F93CF93DF935C01EB0112
:101B50006A01490138018701DC01ED91FC916217AE
:101B6000730719F5641675062CF0962D872D3A012A
:101B7000C92ED82E9601261937092F5F3F4F048CA6
:101B8000F58DE02DA301BE01C5010995DF91CF912F
:101B90001F910F91FF90EF90DF90CF90BF90AF908B
:101BA0009F908F907F906F9008954615570591F400
:101BB0002617370724F0892D4B01C22FD82F9E01FD
:101BC000281939092F5F3F4F068CF78DE02DA601AC
:101BD000B401DACF0284F385E02D0995D501ED91AA
:101BE000FC910488F589E02D83019401A601BE01D2
:101BF000C5010995D501ED91FC910688F789E02D85
:101C0000C501DF91CF911F910F91FF90EF90DF9071
:101C1000CF90BF90AF909F908F907F906F900994DE
:101C2000EF92FF920F931F93DC011A960D911C9176
:101C30001B9718962D913C911997ED91FC9100A05E
:101C4000F1A1E02D7B0150E040E070E060E00995FB
:101C50001F910F91FF90EF9008954F925F926F92B6
:101C60007F928F929F92AF92BF92CF92DF92EF922C
:101C7000FF920F931F93CF93DF936C012B015A01B7
:101C800039014801DC01ED91FC910284F385E02DDE
:101C90000995E201640C751CD601ED91FC91C61505
:101CA000D7055CF40088F189E02D87019401A50136
:101CB000BE01C60109952196EFCF0688F789E02D70
:101CC000C601DF91CF911F910F91FF90EF90DF90B0
:101CD000CF90BF90AF909F908F907F906F905F90CC
:101CE0004F9009948F929F92AF92BF92CF92DF92C2
:101CF000EF92FF920F931F93CF93DF93EC015B0161
:101D00004A016901E881F9810284F385E02D099592
:101D100095012C0D3D1D21503109E881F981048880
:101D2000F589E02D78018401A401B501CE01099562
:101D3000E881F9810688F789E02DCE01DF91CF9106
:101D40001F910F91FF90EF90DF90CF90BF90AF90D9
:101D50009F908F9009948F929F92AF92BF92CF9253
:101D6000DF92EF92FF920F931F93CF93DF93EC01DB
:101D70005B014A0169017801E881F9810284F385F8
:101D8000E02D0995C80CD91C860101501109E88184
:101D9000F9810488F589E02D9501A401B501CE01F2
:101DA0000995E881F9810688F789E02DCE01DF9158
:101DB000CF911F910F91FF90EF90DF90CF90BF9048
:101DC000AF909F908F900994EF92FF920F931F9383
:101DD000DC01ED91FC9100A0F1A1E02D09951F918E
:101DE0000F91FF90EF9008950F931F93DC01ED91F9
:101DF000FC91068CF78DE02D09951F910F910895A8
:101E00002F923F924F925F926F927F928F929F920A
:101E1000AF92BF92CF92DF92EF92FF920F931F93F8
:101E2000CF93DF93CDB7DEB7AC970FB6F894DEBF94
:101E30000FBECDBF6B013A013CA72BA75801261757
:101E400037070CF0ABC1E616F7060CF4BEC16217FB
:101E500073075CF03C2D2D2DCBA4DCA43BA72CA755
:101E6000382F292FC301632E722ECE14DF04D9F52B
:101E70006816790654F0382F292F8615970514F423
:101E8000362D272D3C01832F922FA614B7042CF05A
:101E90008A159B050CF4C50153018A199B099C0105
:101EA0002F5F3F4F01E010E0A601B50182E193E012
:101EB0000E94F40EAC960FB6F894DEBF0FBECDBFF5
:101EC000DF91CF911F910F91FF90EF90DF90CF9016
:101ED000BF90AF909F908F907F906F905F904F904A
:101EE0003F902F9008953A2D2B2D5C01832F922F38
:101EF0003E2D2F2D7601C32ED22E93012A193B0998
:101F00004BA55CA54E195F09BC016A197B097E834C
:101F10006D83D601AE19BF09BA87A987BC016619BE
:101F200077097E876D87C601ABA5BCA58A1B9B0B75
:101F30009E8B8D8BCA16DB0609F48DC01197BA8F64
:101F4000A98F4701212C312C2101198A1A8A1B8A59
:101F50001C8ABA01550F880B990B6B8F7C8F8D8F64
:101F60009E8F89859A85092E000CAA0BBB0B8F8F3B
:101F700098A3A9A3BAA3A901330F660B770B4BA3B0
:101F80005CA36DA37EA36D817E81072E000C880B60
:101F9000990B6FA378A789A79AA7898D9A8D881521
:101FA00099050CF45BC069897A898B899C892B8D92
:101FB0003C8D4D8D5E8D0E943D31D501A20FB31F2A
:101FC000BA83A983C201B1012F8D38A149A15AA1B9
:101FD0000E943D312A0D3B1D49895A896B897C89B4
:101FE0008BA19CA1ADA1BEA1480F591F6A1F7B1FE9
:101FF000498B5A8B6B8B7C8B4FA158A569A57AA511
:10200000240E351E461E571E69817A812617370712
:1020100034F499818A813A832983292F382F898141
:102020009A81281B390B2F5F3F4F01E010E0A4017C
:10203000BC0182E193E00E94F40E9FEF891A990A95
:10204000ACCF362D272D3C01832F922F3C2D2D2DEB
:10205000CBA4DCA4C9C0DA8EC98E73CF9401ABA522
:10206000BCA52A1B3B0B4D855E85249FC001259F87
:10207000900D349F900D11249C01990F440B550B2A
:1020800029833A834B835C83C4018E199F094D8158
:102090005E81849F1001859F300C949F300C112429
:1020A000032C000C440855086D897E89072E000C0E
:1020B000880B990B6D8B7E8B8F8B988F89859A857A
:1020C000092E000CAA0BBB0B89879A87AB87BC87AC
:1020D0002D853E85032E000C440B550B2D873E8726
:1020E0004F87588B4D815E81052E000C660B770B58
:1020F0004D835E836F837887C814D9040CF4DACEDD
:1021000069817A818B819C812D893E894F89588D87
:102110000E943D31B301620F731F7A8B698BC2013C
:10212000B10129853A854B855C850E943D312A0D98
:102130003B1D89819A81AB81BC814D855E856F8510
:102140007889840F951FA61FB71F89839A83AB8355
:10215000BC836D817E818F819885260E371E481E37
:10216000591E89899A892817390734F499898A89E7
:102170003A8B298B292F382FA989BA892A1B3B0B27
:102180002F5F3F4F01E010E0A401BD0182E193E029
:102190000E94F40EBFEF8B1A9B0AAECF2BA53CA575
:1021A000E216F3060CF061CEE616F7060CF449CF02
:1021B0002B2D5A013C01802F922F3BA52CA57CA7EB
:1021C0006BA76701E32EF22E45CE4BA55CA5E41666
:1021D000F5060CF492CE3A2D2B2D5301632E722E60
:1021E0003E2D2F2DEBA4FCA43BA72CA786CE0F934E
:1021F0001F93DC01ED91FC91048CF58DE02D099588
:102200001F910F910895DC01ED91FC910084F185FF
:10221000E02D09949F92AF92BF92CF92DF92EF92FE
:10222000FF920F931F93CF93DF936C017B015A01B1
:1022300010E000E0912CD0E0C0E0CE01877099273B
:10224000990C892B59F4FE0183E0F595E7958A9561
:10225000E1F7E00FF11FEA0DFB1D949097FE0AC015
:1022600021E030E0A701B6016C0F7D1F82E193E011
:102270000E9403112196C038D105F9F68FEFE81AB4
:10228000F80A005F1F4F011582E01807A1F6DF91E1
:10229000CF911F910F91FF90EF90DF90CF90BF9063
:1022A000AF909F9008952F923F924F925F926F92BE
:1022B0007F928F929F92AF92BF92CF92DF92EF92D6
:1022C000FF920F931F93CF93DF9300D000D000D0E5
:1022D000CDB7DEB73C016A013E832D83FC82EB82E1
:1022E0005801A41AB50AB7FE03C0B194A194B1086D
:1022F0008D809E80861A970A97FE03C091948194E0
:1023000091088A149B045CF0902F812F0D811E810F
:102310009D838E839C2D8D2D6B01692F782F0C153D
:102320001D055CF09D818E817E836D83692F782FE2
:10233000902F812F8601C92ED82E1601201A310A1E
:102340002B012D813E81421A530A57FE03C051943E
:1023500041945108710137FE03C03FEFE31AF30ABD
:10236000F594E7948D819E81861797075CF5A1E02F
:10237000B0E0BA83A983C016D1064CF1D301ED9128
:10238000FC910484F585E02D2B813C81A8016D81B1
:102390007E818A149B041CF04D815E81B801C301CB
:1023A0000995E418F508F7FE0AC02D813E81898160
:1023B0009A81280F391F3E832D83E20CF31C0F5F97
:1023C0001F4FD9CF2FEF3FEF3A832983D4CF2696E3
:1023D0000FB6F894DEBF0FBECDBFDF91CF911F9136
:1023E0000F91FF90EF90DF90CF90BF90AF909F90B4
:1023F0008F907F906F905F904F903F902F900895B7
:102400000895FC01908190539A3008F090E081810A
:1024100080532AE0929F800D112408952091DD01C0
:10242000260F3327331F21323105ECF4209173023C
:10243000FC0190E080E0243069F082E00895A091F2
:10244000DD012191AC0143545E4FA40FB52FB11DA6
:102450002C930196861798F38091DD01680F6093A5
:10246000DD0180E0089581E008959B01AC0160E00A
:1024700074E284EF90E00E94A631205131094109B5
:10248000510956954795379527952093B80008959B
:102490001092730281E08093720210926D0261E0EB
:1024A00082E00E94A90661E083E00E94A906E9EBB0
:1024B000F0E080818E7F808380818D7F808388E4BF
:1024C0008093B80085E48093BC000895CF93DF9398
:1024D00091E09093BC018823B9F0C091B800D091ED
:1024E000BA008091BC008A7B8093BC0060E082E0EF
:1024F0000E94A90660E083E00E94A9060E9448129B
:10250000D093BA00C093B800DF91CF910895E091C5
:102510009A0280919902E81730F4F0E0E758FD4FF5
:10252000808190E008958FEF9FEF08958091990248
:1025300090919A02891B990B0895CF92DF92EF92A6
:10254000FF920F931F93CF93DF937C01CB018A01FE
:1025500020919E02222389F0EB016B01C40ED51E4F
:10256000CC15DD0569F06991D701ED91FC910190E1
:10257000F081E02DC7010995F3CF642F0E940E1260
:10258000C801DF91CF911F910F91FF90EF90DF90E5
:10259000CF900895CF93DF931F92CDB7DEB76983B5
:1025A00020919E022223F9F020919B02203258F0C4
:1025B00021E030E0FC013383228390E080E00F9043
:1025C000DF91CF91089580919C02E82FF0E0E456CE
:1025D000FE4F998190838F5F80939C0280939B0232
:1025E00081E090E0ECCF61E0CE0101960E940E12F6
:1025F000F7CF60E08FEE92E00C94CA12CF92DF9298
:10260000EF92FF920F931F93CF93DF93D0919B0292
:1026100081E0D13208F09CC0C0919D020E94080761
:102620006B017C018091730281116CC082E0809308
:10263000730281E0809372028FEF80937102109297
:102640007002D0936F02ACE9B1E0EDE4F2E080E01B
:10265000D8138DC010926E0280916E02CC0FC82BE1
:10266000C0936E0280916D02813009F084C0109297
:102670006D020E9408076B017C0180916E028093BD
:10268000BB008091750290917602A0917702B09183
:102690007802892B8A2B8B2BA1F00E9408070091CE
:1026A00075021091760220917702309178026C19B0
:1026B0007D098E099F09061717072807390708F4AF
:1026C00042C08091BC0083FDD8CF85EC8093BC00D4
:1026D0000E9408076B017C0180917302823009F42B
:1026E0004CC0809171028F3F09F469C080917102E2
:1026F000803209F466C080917102803309F463C0AE
:1027000084E026C08091750290917602A0917702B4
:10271000B0917802892B8A2B8B2B09F483CF0E94EE
:10272000080700917502109176022091770230918E
:1027300078026C197D098E099F090617170728076B
:10274000390708F06FCF809174020E94661285E00D
:1027500010929C0210929B0210929E02DF91CF91E8
:102760001F910F91FF90EF90DF90CF9008959D9172
:1027700091938F5F6DCF85EEA9CF80917502909177
:102780007602A0917702B0917802892B8A2B8B2B4D
:1027900009F4A2CF0E9408070091750210917602F9
:1027A00020917702309178026C197D098E099F097A
:1027B000061717072807390708F08ECFC4CF80E027
:1027C000C7CF82E0C5CF83E0C3CFFF920F931F93A3
:1027D000CF93DF93F82ED92FC62F80912E0390919F
:1027E0002F03892B09F447C0809132030E944E04C5
:1027F00080912E0390912F03DC01ED91FC910190CB
:10280000F081E02D60E009950F2D1D2FD1E0C15022
:1028100080912E0390912F03CF3F31F1D03298F069
:102820000E94FE12809132030E944E0480912E037A
:1028300090912F03DC01ED91FC910190F081E02D4E
:1028400060E00995D1E080912E0390912F03F8016B
:102850006491DC01ED91FC910190F081E02D0995EE
:10286000DF5F0F5F1F4FD3CFDF91CF911F910F918C
:10287000FF900C94FE12E0913E03F0913F03908193
:10288000809144038095892380830F2D1D2FC15093
:1028900008F438C0F801849120912C0330912D0365
:1028A000232B29F00E943A0A0F5F1F4FF0CF28E038
:1028B00030E040E8E0913A03F0913B03909142030D
:1028C000582F5423D9F05081952B9083E0913C03ED
:1028D000F0913D03908150914303952B9083E091BB
:1028E0003C03F0913D0350819091430390959523D3
:1028F0009083469521503109E9F6D6CF50819095C5
:102900009523E3CFDF91CF911F910F91FF90089511
:102910001F93CF93DF93EC018C8D9D8D892BF9F064
:10292000162F88A10E944E048C8D9D8DDC01ED91A7
:10293000FC910190F081E02D60E009958C8D9D8DDA
:10294000DC01ED91FC910190F081E02D612F099562
:102950008C8D9D8DDF91CF911F910C94FE12ACA5B3
:10296000BDA59C918AA9809589238C938A8D9B8D86
:10297000892B31F0862FDF91CF911F910C943A0A69
:1029800028E030E080E8A8A5B9A598A9462F4823FB
:10299000C1F04C91942B9C93AAA5BBA59C9149A9ED
:1029A000942B9C93AAA5BBA54C9199A9909594238F
:1029B0009C9386952150310931F7DF91CF911F917A
:1029C00008954C9190959423E6CFCF93C82F809192
:1029D0002E0390912F03892B01F160914603709192
:1029E000470380914803909149030E9435126C2F50
:1029F00082E193E00E94881480912E0390912F032E
:102A0000892B11F160914A0370914B0380914C0323
:102A100090914D03CF910C94351280912C0390919D
:102A20002D03892B31F080914F03909150030E9428
:102A3000420AE0914003F091410390818091450367
:102A4000809589238083D3CFE0914003F0914103A7
:102A5000808190914503892B8083CF9108958FEADF
:102A60000C94E514FF920F931F93CF93DF93809103
:102A70002E0390912F03892B09F479C060914603AE
:102A80007091470380914803909149030E94351249
:102A900065E082E398E00E94E513609116036150BF
:102AA00082E193E00E948814209118033091190369
:102AB000C901079697FD079623E0959587952A9576
:102AC000E1F72091160330911703829F8001839FC5
:102AD000100D929F100D1124C0913003D09131033D
:102AE00080912E0390912F030C0F1D1F892B09F449
:102AF0006DC0809132030E944E0480912E0390910C
:102B00002F03DC01ED91FC910190F081E02D60E458
:102B10000995FF24F39480912E0390912F030C17B5
:102B20001D07E1F1BFE1BF15A0F40E94FE128091E4
:102B300032030E944E0480912E0390912F03DC01FA
:102B4000ED91FC910190F081E02D60E40995FF2466
:102B5000F39480912E0390912F036991DC01ED9104
:102B6000FC910190F081E02D0995F394D4CF8091F0
:102B70002C0390912D03892B31F080914F0390917C
:102B800050030E94420AE0914003F091410390817A
:102B9000809145038095892380837ACF0E94FE121D
:102BA00080912E0390912F03892B09F450C06091DE
:102BB0004A0370914B0380914C0390914D03DF9138
:102BC000CF911F910F91FF900C943512E0913E032D
:102BD000F0913F03808190914403892B80830C17EF
:102BE0001D07F1F2899120912C0330912D03232BA5
:102BF00019F00E943A0AF3CF28E030E040E8E09173
:102C00003A03F0913B0390914203582F5423D9F09B
:102C10005081952B9083E0913C03F0913D0390818E
:102C200050914303952B9083E0913C03F0913D0339
:102C30005081909143039095952390834695215020
:102C40003109E9F6CCCF508190959523E3CFE091FF
:102C50004003F0914103808190914503892B80834B
:102C6000DF91CF911F910F91FF900895CF93C82FBF
:102C700080912E0390912F03892B41F1609146039F
:102C80007091470380914803909149030E94351247
:102C900061E882E193E00E94881460914E03C111C3
:102CA00060E082E193E00E94881480912E0390916D
:102CB0002F03892B11F160914A0370914B0380918E
:102CC0004C0390914D03CF910C94351280912C03BD
:102CD00090912D03892B31F080914F0390915003F7
:102CE0000E94420AE0914003F0914103908180915B
:102CF0004503809589238083CBCFE0914003F091F9
:102D00004103808190914503892B8083CF91089561
:102D10001F93CF93DF93EC01162F8C8D9D8D892B04
:102D2000C9F06CA97DA98EA99FA90E94351266EAF7
:102D3000111167EACE010E9488148C8D9D8D892B1C
:102D4000C9F068AD79AD8AAD9BADDF91CF911F9190
:102D50000C9435128A8D9B8D892B21F08DAD9EAD03
:102D60000E94420AEEA5FFA590818BA98095892338
:102D70008083DDCFEEA5FFA580819BA9892B808371
:102D8000DF91CF911F9108951F93CF93DF93EC01B3
:102D900088E60E944E040E94F9122D811AE0822FCB
:102DA000612F0E940133682F660F680F660F620F54
:102DB0008FEE92E00E94CA122C81822F612F0E9416
:102DC0000133682F660F680F660F620F8FEE92E077
:102DD0000E94CA122B81822F612F0E940133682F1B
:102DE000660F680F660F620F8FEE92E00E94CA12A4
:102DF00060E08FEE92E00E94CA122A81822F612F3A
:102E00000E940133682F660F680F660F620F8FEE06
:102E100092E00E94CA122981822F612F0E94013301
:102E2000682F660F680F660F620F8FEE92E00E94A8
:102E3000CA122881822F612F0E940133682F660FEA
:102E4000680F660F620F8FEE92E00E94CA120E9416
:102E5000F9128FEE92E0DF91CF911F910C94FE1248
:102E600090E080E008950895CF92DF92EF92FF9274
:102E70000F931F93CF93DF93EC01F8948FB7F894DF
:102E8000C0904902D0904A02E0904B02F0904C0270
:102E90008FBF8881182F117080FD34C089819A817D
:102EA0009601281B390B2937310530F08881816064
:102EB0008883DA82C98211E088818D7F8883888146
:102EC000082F017080FF13C089819A819601281B09
:102ED000390B2937310558F08B810E948006892BE8
:102EE00031F488818E7F8883DA82C982102F7894AA
:102EF000812FDF91CF911F910F91FF90EF90DF9085
:102F0000CF90089510E0D8CF8F929F92AF92BF924A
:102F1000CF92DF92EF92FF920F931F93CF93DF93A5
:102F20007C01D62F0E9408074B015C01809173023F
:102F3000811167C0CD2F81E080937302809372026C
:102F40009FEF90937102109270029D0F90936F0209
:102F500080936E0280916E02EE0CFF1C8E2980938E
:102F60006E0280916D02813009F083C010926D0273
:102F70000E9408076B017C0180916E028093BB0068
:102F80008091750290917602A0917702B0917802BB
:102F9000892B8A2B8B2BA1F00E9408078090750249
:102FA00090907602A0907702B09078026C197D091B
:102FB0008E099F0986169706A806B90608F442C02E
:102FC0008091BC0083FDD8CF85EC8093BC000E942B
:102FD00008076B017C0180917302813009F44BC0BA
:102FE000809170028D1710F4C0917002EDE4F2E050
:102FF000A9E7B2E080E08C1751F191919D938F5F2A
:10300000FACF8091750290917602A0917702B091EB
:103010007802892B8A2B8B2B09F488CF0E94080712
:10302000009175021091760220917702309178021A
:10303000681979098A099B090617170728073907AC
:1030400008F074CF809174020E946612C0E0109262
:103050009A02C09399028C2FDF91CF911F910F910B
:10306000FF90EF90DF90CF90BF90AF909F908F90A8
:10307000089585EEAACF8091750290917602A09175
:103080007702B0917802892B8A2B8B2B09F4A3CF7E
:103090000E9408078090750290907602A0907702B7
:1030A000B09078026C197D098E099F0986169706E3
:1030B000A806B90608F08FCFC5CFEF92FF920F9305
:1030C0001F93CF93DF932FB7F8948091490290918B
:1030D0004A02A0914B02B0914C022FBF40910E03C7
:1030E00050910F036091100370911103841B950B95
:1030F000A60BB70B893E9340A105B10578F4452B8B
:10310000462B472B59F01092030310920203DF91D4
:10311000CF911F910F91FF90EF900895E0900003E1
:1031200088E60E944E040E94F9128FEE92E00E94FF
:10313000FE1267E070E088E690E00E9484170E942B
:103140006C048F77282F30E094E0359527959A9579
:10315000E1F7922F990F990FC22FC91BCC0FC80FFF
:103160000E946C049C0144E0359527954A95E1F74F
:103170002F703327922F990F990FD22FD91BDD0F64
:10318000D80F0E946C049C0154E0359527955A9500
:10319000E1F72F703327922F990F990F122F191BD8
:1031A000110F180F0E946C040E946C049C0164E0D3
:1031B000359527956A95E1F72F703327922F990F50
:1031C000990F022F091B000F080F0E946C049C012D
:1031D00074E0359527957A95E1F72F703327922F74
:1031E000990F990FF22EF91AFF0CF80E0E946C0439
:1031F0009C01E4E035952795EA95E1F72F70332798
:10320000922F990F990F291B220F820F8093FC0296
:10321000F092FD020093FE021093FF02D093000390
:10322000C09301032FB7F8948091490290914A020C
:10323000A0914B02B0914C022FBF80930E0390934C
:103240000F03A0931003B093110381E0909100034A
:103250009E1101C080E08093030381E0809302030C
:1032600062E070E089E490E00E9484170E946C04A0
:10327000C82F0E946C0460E07C2F682B84E0759559
:1032800067958A95E1F7072E000C880B990B0E9431
:10329000083220E030E040E85DE30E946C32609349
:1032A00004037093050380930603909307032FCFC5
:1032B0002091180330911903C901079697FD0796CD
:1032C00023E0959587952A95E1F720911603309193
:1032D0001703829FA001839F500D929F500D1124D0
:1032E00070E060E080913003909131030C9465347C
:1032F0000E946034FB0101900020E9F73197AF0193
:10330000461B570BDC01ED91FC910280F381E02D0F
:1033100009948F929F92AF92BF92EF92FF920F9378
:103320001F93CF93DF93CDB7DEB7A1970FB6F89475
:10333000DEBF0FBECDBF7C01FA01CB0119A2223046
:1033400008F42AE08E010F5D1F4F822E912CB12CC4
:10335000A12CBF01A50194010E94A631F901CA0167
:103360006A300CF5605DD8016E938D01232B242B00
:10337000252B79F790E080E0109721F0BD01C7017F
:103380000E947A19A1960FB6F894DEBF0FBECDBF8A
:10339000DF91CF911F910F91FF90EF90BF90AF9071
:1033A0009F908F900895695CDECFCF92DF92EF926D
:1033B000FF920F931F93CF93DF93CDB7DEB728977C
:1033C0000FB6F894DEBF0FBECDBF6C01EE24E394C0
:1033D000F12C00E410E020E830E050E040E070E044
:1033E00060E082E193E00E94390D81E090E09093EB
:1033F00025038093240390932303809322038093D7
:10340000260382E090E090931F0380931E03909325
:10341000210380932003B60182E193E00E946205BC
:1034200026E0289F6001299FD00C112482E0C80E5D
:10343000D11C01E010E096014AE050E070E060E04D
:1034400082E193E00E9444092AE030E050E040E04D
:10345000B60182E193E00E94FB0880910803882373
:1034600009F46FC08FE1C82ED12C96012E5F3F4F1B
:103470006EE770E06C197D09EE24E394F12C0AE00C
:1034800010E050E040E082E193E00E942D0E9601B2
:103490002F5F3F4F6FE770E06C197D0901E010E08E
:1034A0004AE050E082E193E00E9444091092230335
:1034B0001092220381E090E09093250380932403EF
:1034C00080E890E08C199D09409108033091000339
:1034D0002091FF028E010F5F1F4F90931F03809377
:1034E0001E0382E090E09093210380932003442305
:1034F00051F11F923F931F922F9388E298E09F9380
:103500008F931F9287E08F931F930F930E94792EC2
:103510000FB6F894DEBF0FBECDBFB80182E193E0D5
:103520000E947A1928960FB6F894DEBF0FBECDBF61
:10353000DF91CF911F910F91FF90EF90DF90CF908F
:10354000089585E290CF822F6CE00E9401339111A3
:1035500001C09CE080E52C3008F481E41F928F9339
:103560001F923F931F929F938CE198E09F938F93BC
:103570001F9287E08F931F930F930E94792EC8CFDD
:10358000AF92BF92CF92DF92EF92FF920F931F9371
:10359000CF93DF93CDB7DEB729970FB6F894DEBF90
:1035A0000FBECDBF6B018091FF0290910803911176
:1035B00007C06CE00E940133892F911101C08CE09B
:1035C000909100031F929F931F928F938EEF90E034
:1035D0009F938F931F9289E08F93CE0101965C0198
:1035E0009F938F930E94792E81E090E0D6015396AD
:1035F0009C938E93529751969C938E93509782E012
:1036000054968C93549785E090E01D969C938E93EE
:103610001C9782E190E01F969C938E931E97B501B4
:10362000C6010E947A1981E0F601848B0FB6F894E6
:10363000DEBF0FBECDBF80910803811113C081E4AE
:1036400090E09587848789E190E0978786878091CD
:10365000FF026BEF70E08C3010F468EF70E0C60191
:103660000E9462056091010370E090E080E0E7E075
:10367000660F771F881F991FEA95D1F72CE330E07A
:1036800040E050E00E943D31D601ED91FC9100A058
:10369000F1A1E02DEE24E394F12C03E010E043E2ED
:1036A00050E070E060E0C601099582E590E0F60127
:1036B0009587848782E190E0978786876091FD02F5
:1036C0009091FC02492F50E08091FE02282F30E0BB
:1036D000E7E3F8E081E0861730F47491270F311D9D
:1036E0008F5F3196F8CF633020F0937011F42F5F25
:1036F0003F4F6DE671E0469FC001479F900D569F7A
:10370000900D112405964D5F5F4F56954795569540
:103710004795840F951F820F931F67E070E00E940A
:103720000D33815060EF70E0863040F4E82FF0E018
:10373000EE0FFF1FE85EFE4F60817181C6010E949F
:103740006205D601ED91FC910190F081E02D60E2DF
:10375000C6010995609104037091050380910603E9
:10376000909107030E94D731462F50E070E060E04F
:103770002AE0C6010E948919D601ED91FC910284CC
:10378000F385E02DC6010995D601ED91FC910484E5
:10379000F585E02D21E030E044E150E068E770E09D
:1037A000C6010995D601ED91FC910484F585E02DC3
:1037B00021E030E042E150E068E770E0C6010995A1
:1037C000D601ED91FC910484F585E02D21E030E0F7
:1037D00043E150E069E770E0C6010995D601ED913B
:1037E000FC910484F585E02D21E030E043E150E0D8
:1037F00067E770E0C6010995D601ED91FC9104845C
:10380000F585E02D21E030E043E150E069E770E02C
:10381000C6010995D601ED91FC910484F585E02D52
:1038200021E030E043E150E067E770E0C601099530
:10383000D601ED91FC910484F585E02D21E030E086
:1038400043E150E069E770E0C6010995D601ED91CA
:10385000FC910484F585E02D21E030E043E150E067
:1038600067E770E0C6010995D601ED91FC910484EB
:10387000F585E02D21E030E044E150E068E770E0BC
:10388000C6010995D601ED91FC910484F585E02DE2
:1038900021E030E044E150E068E770E0C6010995BE
:1038A000D601ED91FC910484F585E02D21E030E016
:1038B00042E150E068E770E0C6010995D601ED915C
:1038C000FC910484F585E02D21E030E042E150E0F8
:1038D00068E770E0C6010995D601ED91FC91068874
:1038E000F789E02DC601099588E590E0F6019587F6
:1038F00084878AE190E0978786878091FE021F92F5
:103900008F9384EF90E09F938F931F9289E08F9322
:10391000BF92AF920E94792EB501C6010E947A191A
:10392000D601ED91FC910190F081E02D60E2C6019D
:103930000995E091FD02E2500FB6F894DEBF0FBE8C
:10394000CDBF6CE977E0EB3038F4F0E0EE0FFF1F0D
:10395000EB5CFE4F60817181C6010E946205299671
:103960000FB6F894DEBF0FBECDBFDF91CF911F9190
:103970000F91FF90EF90DF90CF90BF90AF900895A0
:1039800085ED8093BC008091750290917602A091A4
:103990007702B09178020796A11DB11D23E0B6957C
:1039A000A795979587952A95D1F72091BC0024FD7E
:1039B00003C01092730208954091750250917602EF
:1039C0006091770270917802452B462B472B69F363
:1039D0000097A105B10541F025E32A95F1F7000014
:1039E0000197A109B109E1CF809174020C9466128C
:1039F0000C942F3163E490E080E00E94F81C609109
:103A00000803809109038111626081E090E00E94C7
:103A1000F81C60910A0382E090E00E94F81C60911B
:103A20000B0383E090E00E94F81C60910C0384E09B
:103A300090E00E94F81C60910D0385E090E00C94EA
:103A4000F81C1F920F920FB60F9211248F939F9321
:103A50008091E1009091E100937F9093E10083FFDA
:103A60000FC01092E90091E09093EB001092EC00EF
:103A700092E39093ED001092480298E09093F0004A
:103A800082FF22C093E09093E9009091F200992385
:103A900019F09AE39093E80090910A02992341F07B
:103AA00090910A02915090930A02911101C05D9A7F
:103AB00090914702992341F0909147029150909341
:103AC0004702911101C0289A84FF18C08091E2003A
:103AD0008E7E81608093E2008091E1008F7E8093F2
:103AE000E10080910B028E7E806180930B029F919A
:103AF0008F910F900FBE0F901F90189580FFF7CFFA
:103B00008091E2008E7E80618093E2008091E100EE
:103B10008E7E8093E10080910B028E7E8160E5CFE6
:103B20001F920F920FB60F921124CF92DF92EF9255
:103B3000FF920F931F932F933F934F935F936F9336
:103B40007F938F939F93AF93BF93EF93FF93CF9305
:103B5000DF93CDB7DEB76C97DEBFCDBF1092E90023
:103B60008091E80083FF25C068E0CE0145960E9461
:103B7000550582EF8093E8008D8987FF39C09091C9
:103B8000E80090FFFCCF982F907609F034C19E8911
:103B90004F89588D2F89F88C911131C0803861F58B
:103BA00080910C028093F1001092F1008EEF8093CF
:103BB000E8006C960FB6F894DEBF0FBECDBFDF9164
:103BC000CF91FF91EF91BF91AF919F918F917F9195
:103BD0006F915F914F913F912F911F910F91FF90A6
:103BE000EF90DF90CF900F900FBE0F901F90189521
:103BF0009EEF9093E800C7CF1092F100D5CF91309F
:103C000059F48111D3CF4130510581F680910C02D6
:103C10008D7F80930C02CACF933049F48111C6CFB7
:103C20004130510519F680910C028260F2CF953037
:103C300041F48091E80080FFFCCF20682093E300EE
:103C4000B5CF963009F0A9C00B8D1C8D22E01092E3
:103C5000E9001092080210920702F2122EC0109290
:103C60000602109205020E9424051F8299E09983A2
:103C7000FA8291E09E8390EA98879AEF9987209143
:103C8000070230910802275F3F4F3C832B838D83CF
:103C90001092E90010920802109207021093060297
:103CA0000093050249E050E0BE016F5F7F4F80E066
:103CB0000E94FE040E94240579CF1093060200930F
:103CC00005020E94BA04DC0112960D911C910115A7
:103CD000110509F451C1D801ED91FC910480F581E1
:103CE000E02DBE016B5E7F4FC8010995009709F07A
:103CF0003EC1F80100851185EACFF3E0FF120EC046
:103D00008F89882309F440C0823061F440E860E183
:103D10008BE996E00E945F22811148CF81E2809377
:103D2000EB0047CF813029F440E86BE08FE896E064
:103D3000F1CF833099F70E94BA04DC011296ED901E
:103D4000FC908E010F5F1F4F6801E114F10479F0C0
:103D5000D701ED91FC910680F781E02DB801C701F4
:103D60000995080F111DF701E084F184EECFD80109
:103D70001C92F60101900020E9F73197BF016C1900
:103D80007D0940E0C601C6CF69E776E0FB014491BA
:103D900050E080E80E94FE0409CF973009F4BECFBE
:103DA000983021F481E08093F10000CF993009F040
:103DB000FDCE837009F0B2CFE5E2F1E081E031E0C1
:103DC00096E32191222371F08093E9003093EB0078
:103DD000DF0111972C912093EC009093ED008F5F01
:103DE000873079F78EE78093EA001092EA008F8996
:103DF00080934802DBCE8B8D9C8D1092E90010924F
:103E00000802109207029093060280930502898DA2
:103E1000811192C08E899D89913A49F4813209F0CD
:103E20007DCF47E050E064E071E080E0B3CF9132B5
:103E300009F074CF833269F48F89988DB0E0A0E0E7
:103E40008093000190930101A0930201B0930301BC
:103E5000ADCE803269F48091E80082FFFCCF67E04C
:103E600084E091E00E9455058BEF8093E8009ECEA0
:103E7000823209F09BCE8F8980930B01EEEFFFE732
:103E8000859194918B3F9C4D51F1E0E0F8E0809159
:103E9000040190910501A0910601B0910701803BBA
:103EA0009440A105B105F1F480910B0180FD1AC089
:103EB000EE3F8AE0F80789F587E797E791838083EB
:103EC000809160008093090288E19BE00FB6F8942E
:103ED000A895809360000FBE9093600067CEEEEFD0
:103EE000FAE0D5CF808191818737974709F05ECE80
:103EF000A89580916000886180936000809109029C
:103F000080936000EE3F2AE0F20789F08091FE0A7C
:103F10009091FF0A9183808349CE80819181873778
:103F2000980751F29093FF0A8093FE0AC5CF109232
:103F3000FF0A1092FE0A3ACE0E94BA04DC011296E1
:103F40000D911C910115110509F4E8CED801ED91F0
:103F5000FC910190F081E02DBE016B5E7F4FC801A6
:103F60000995811123CEF80100851185EBCF181634
:103F700019060CF41BCED2CEF1E0FF12BECE6DE7D7
:103F800076E004CF1F920F920FB60F9211242F9359
:103F90003F938F939F93AF93BF93809149029091EA
:103FA0004A02A0914B02B0914C023091000223E0F2
:103FB000230F2D3758F50196A11DB11D2093000246
:103FC0008093490290934A02A0934B02B0934C0213
:103FD0008091010290910202A0910302B09104022B
:103FE0000196A11DB11D8093010290930202A0933E
:103FF0000302B0930402BF91AF919F918F913F91C3
:104000002F910F900FBE0F901F90189526E8230F49
:104010000296A11DB11DD2CF1F920F920FB60F9223
:1040200011242F933F934F935F936F937F938F93BD
:104030009F93AF93BF93EF93FF938091B900887FD5
:10404000803609F44AC0F0F5883209F4A7C018F5A3
:10405000803109F49BC0B8F4882309F4F9C0883092
:1040600009F494C0FF91EF91BF91AF919F918F910F
:104070007F916F915F914F913F912F910F900FBE64
:104080000F901F901895883109F488C0803251F73D
:104090008093710214C0803409F49DC040F48033D1
:1040A000B9F38833F9F68093710285ECB0C080359E
:1040B00009F485C0883509F496C0883499F60E94C1
:1040C000C01CD0CF883909F48CC038F5883729F066
:1040D00050F4883611F0803729F683E0809373021C
:1040E0001092FF0157C0883809F47BC0803919F05D
:1040F000803809F0B7CF8091FF01803208F071C09D
:10410000E091FF0181E08E0F8093FF018091BB0061
:10411000F0E0E152FE4F80833DC0803B39F0E0F497
:10412000803A09F479C0883A09F09CCF84E0809302
:1041300073021092DE011092DD01E0911002F09105
:10414000110209958091DD0181110FC081E08093FA
:10415000DD011092BD0109C0803C09F4A6CF883C66
:1041600009F4A3CF883B09F07DCFE091DE0181E027
:104170008E0F8093DE01F0E0E354FE4F8081809348
:10418000BB009091DE018091DD0129C080916E021B
:104190008093BB0085EC8093BC0064CF909170024B
:1041A00080916F02981758F5E091700281E08E0FB0
:1041B00080937002F0E0E35BFD4F8081E9CFE091F6
:1041C000700281E08E0F809370028091BB00F0E05E
:1041D000E35BFD4F80839091700280916F0298178E
:1041E000C8F285E8D8CFE091700281E08E0F80930D
:1041F00070028091BB00F0E0E35BFD4F8083809113
:10420000720281115CCF81E080936D0284EA809319
:10421000BC001092730226CF85EC8093BC001092F4
:1042200073028091FF01803230F4E091FF01F0E0F1
:10423000E152FE4F10826091FF0170E0E0910E02AA
:10424000F0910F028FED91E009951092FF010ACFD6
:104250001092710234CF1F920F920FB60F92112459
:104260002F933F934F935F936F937F938F939F937E
:10427000AF93BF93CF93EF93FF9393B1C0911E027F
:104280008091300230912F02292F209523238923FA
:10429000822B20916B00C927C223C82390931E0252
:1042A000CC23C1F1C0FF05C0E0911F02F0912002B4
:1042B0000995C1FF05C0E0912102F0912202099504
:1042C000C2FF05C0E0912302F09124020995C3FFCB
:1042D00005C0E0912502F09126020995C4FF05C0B2
:1042E000E0912702F09128020995C5FF05C0E091F1
:1042F0002902F0912A020995C6FF05C0E0912B0220
:10430000F0912C020995C7FF05C0E0912D02F091B4
:104310002E020995FF91EF91CF91BF91AF919F919F
:104320008F917F916F915F914F913F912F910F905E
:104330000FBE0F901F9018951F920F920FB60F92FD
:1043400011242F933F934F935F936F937F938F939A
:104350009F93AF93BF93EF93FF93E0911A02F09175
:104360001B020995FF91EF91BF91AF919F918F91A2
:104370007F916F915F914F913F912F910F900FBE61
:104380000F901F9018951F920F920FB60F92112445
:104390002F933F934F935F936F937F938F939F934D
:1043A000AF93BF93EF93FF93E0911802F09119023E
:1043B0000995FF91EF91BF91AF919F918F917F915F
:1043C0006F915F914F913F912F910F900FBE0F9082
:1043D0001F9018951F920F920FB60F9211242F93D2
:1043E0003F934F935F936F937F938F939F93AF937D
:1043F000BF93EF93FF93E0911602F0911702099596
:10440000FF91EF91BF91AF919F918F917F916F91AC
:104410005F914F913F912F910F900FBE0F901F9082
:1044200018951F920F920FB60F9211242F933F935E
:104430004F935F936F937F938F939F93AF93BF93AC
:10444000EF93FF93E0911402F09115020995FF910B
:10445000EF91BF91AF919F918F917F916F915F91FC
:104460004F913F912F910F900FBE0F901F90189575
:104470001F920F920FB60F9211242F933F934F93D9
:104480005F936F937F938F939F93AF93BF93EF93BC
:10449000FF93E0911202F09113020995FF91EF91C1
:1044A000BF91AF919F918F917F916F915F914F914C
:1044B0003F912F910F900FBE0F901F901895EF9284
:1044C000FF920F931F93CF93DF93F82E192FE62EB1
:1044D000042F81E0860F880F0E94D00483E00E94A1
:1044E000D004CF2DD12FEC0EFD2EF11CCE15DF0503
:1044F000B9F007FF13C0FE0184910E94D004182F69
:1045000080E00E94D004812321968111EFCFDF91BA
:10451000CF911F910F91FF90EF9008958881EDCF7B
:1045200081E0F5CF0C942731CF931092A202109224
:10453000A10288EE93E0A0E0B0E08093A302909304
:10454000A402A093A502B093A6022FE431E0309319
:10455000A00220939F022FEF3FEF3093AC022093F5
:10456000AB021092F2021092F1028093F302909348
:10457000F402A093F502B093F60281E691E09093E5
:10458000F0028093EF0210925B0310925A038AE0CC
:1045900080935C03809159038E7F809359038091AF
:1045A00059038D7F8093590310925703109256033D
:1045B00088E080935803809155038E7F8093550344
:1045C000809155038D7F8093550310925303109271
:1045D00052038BE080935403809151038E7F80932C
:1045E0005103809151038D7F8093510310921503E5
:1045F0001092140340E850E05093170340931603C1
:1046000080E490E0909319038093180350931B0368
:1046100040931A0390931D0380931C031092270369
:1046200010921F0310921E03109221031092200378
:1046300081E0809326033093250320932403309355
:1046400023032093220380932803109229031092BE
:104650002B0310922A0323E731E0309313032093B6
:1046600012032BEF32E030932D0320932C03109292
:104670002F0310922E0310923103109230039FEFFC
:10468000909335039093360395E19093370397E128
:104690009093380396E19093390390E590934F03FC
:1046A0008093500380E1809301038CE180930003A9
:1046B00086E08093FF0240E081E697E9E3E9FEEFC0
:1046C000542F537021E009F020E061E0640F30E0E6
:1046D000D901A359BE4F8A179B0738F0AF01421B7F
:1046E000530B840F951F462FEBCF4093FC0221E024
:1046F000622F6150770BFB01E95CF74FE491511198
:1047000003C0223009F4EF5FF0E031E0320F8E1782
:104710009F0720F08E1B9F0B232FEACF2093FD02D3
:104720008F5F8093FE021092020310920303109297
:1047300004031092050310920603109207031092CF
:1047400008031092090382E080930A038FEF80939D
:104750000B0310920D0310920C0310920E03109293
:104760000F03109210031092110390E080E00E945A
:104770009222C82F8FEB8C0F833060F481E090E0A1
:104780000E949222982F91709093080386958170D1
:10479000809309038EEB8C0F8230E8F482E090E086
:1047A0000E94922280930A03C334A9F483E090E02C
:1047B0000E94922280930B0384E090E00E94922258
:1047C000C82F85E090E00E949222982F8C2F909322
:1047D0000D0380930C03CF910895CF93DF93CDB752
:1047E000DEB761970FB6F894DEBF0FBECDBF7894E9
:1047F00084B5826084BD84B5816084BD85B58260E6
:1048000085BD85B5816085BD80916E008160809396
:104810006E001092810080918100826080938100FF
:10482000809181008160809381008091800081600F
:1048300080938000809191008260809391008091AC
:1048400091008160809391008091900081608093BD
:1048500090008091C10084608093C1008091C1006C
:1048600082608093C1008091C10081608093C1000B
:104870008091C30081608093C3008091C0008260FA
:104880008093C0008091C20081608093C2008091BB
:104890007A00846080937A0080917A0082608093AD
:1048A0007A0080917A00816080937A0080917A000A
:1048B000806880937A001092480210920C02109245
:1048C0000B028091D70081608093D70080EA8093AB
:1048D000D80089B5806189BD89B5826089BD09B478
:1048E00000FEFDCF61E070E080E090E00E942D07C7
:1048F0008091D8008F7C80618093D8008091E00007
:10490000807F8093E0008091E1008E7E8093E100C3
:104910008DE08093E200559A209A8FEF9FEF90935D
:10492000AC028093AB02EFEAF6E0E49190917B0059
:104930008E2F880F880F80729F7D892B80937B003C
:10494000E770E064E0937C0080917A00806480935B
:104950007A0080917A0086FDFCCF8091780060918A
:104960007900762F682F072E000C880B990B6115A4
:1049700071058105910511F00E94672E10929A022F
:104980001092990210929C0210929B020E9448126F
:104990008EEC94E090931102809310028FEC94E0DF
:1049A00090930F0280930E02809130039091310317
:1049B000892BF9F00E94581920911803309119039E
:1049C0008091160390911703B90160527109213249
:1049D00031050CF076C077FF03C0B9016F51710942
:1049E000759567958058910997FD019646EE56E0BA
:1049F00070C02091180330911903C901079697FDE3
:104A00000796B3E095958795BA95E1F7209116033F
:104A100030911703AC01429FC001439F900D529FFC
:104A2000900D11240E943B33909331038093300307
:104A3000892B09F0BFCF0E94581960E082E193E012
:104A40000E94460A88E60E944E040E94F9128FEEE8
:104A500092E00E94FE1261E070E088E690E00E9421
:104A600084170E946C0487FF2EC24BE050E061E186
:104A700077E0CE0101960E94702ECE010A960E9428
:104A800001128C87E981E154E33108F0FCC10E2E5C
:104A9000000CFF0BE25BFA4D0C943533C928432719
:104AA0004327DD284327C7284327432743273927A0
:104AB00043274327D028DB28D928432743274327E8
:104AC000D728759567958058910997FD019646EE10
:104AD00056E0959587950E940A1182E080933303F2
:104AE00080912E0390912F03892B09F4CCC08091E3
:104AF000180390911903809709F0C3C08CE3809349
:104B0000320310929A021092990210929C02109213
:104B10009B020E9448128EEC94E0909311028093C5
:104B200010028FEC94E090930F0280930E0280911C
:104B3000390387FD1EC061E00E94D70661E08091C5
:104B400039030E94A90661E070E080E090E00E94D5
:104B50002D0760E0809139030E94A9066AE070E0A9
:104B600080E090E00E942D0761E0809139030E946F
:104B7000A90680912E0390912F03892B09F442C13D
:104B800060914603709147038091480390914903D7
:104B90000E94351264E084ED96E00E94E513609176
:104BA0001803615082E193E00E94881464E080ED74
:104BB00096E00E94E5138091330360E1813009F0B3
:104BC00064E182E193E00E94881464E08CEC96E05A
:104BD0000E94E5138FE880934E0380911603909115
:104BE00017038038910509F026C180911803909130
:104BF00019038034910509F02EC18091330381306F
:104C000009F017C18FE980934E0312E16AED82E14A
:104C100093E00E948814612F82E193E00E9488143F
:104C200061E882E193E00E94881460914E0382E182
:104C300093E00E94881469ED82E193E00E94881459
:104C40008091330362E2813009F061EF82E193E009
:104C50000E94881466E086EC96E00E94E51380913D
:104C60002E0390912F03892B09F4F9C060914A0318
:104C700070914B0380914C0390914D030E9435122B
:104C8000DACE8DE33CCF61E0809137030E94D706F6
:104C900061E0809138030E94D70680913703082E87
:104CA000000C990BFC01E35CF84FE491F0E0EE0F8F
:104CB000FF1FE852F94F2591349130933F03209321
:104CC0003E03FC01E45AF84FE491E09344038091E1
:104CD0003803082E000C990BFC01E35CF84FE491BB
:104CE000F0E0EE0FFF1FE852F94FA591B491B09399
:104CF0004103A0934003FC01E45AF84FE491E09390
:104D000045038C91E82BEC9380912C0390912D031B
:104D1000892B09F434C01FB7F89480910D028111DA
:104D200027C0EEE4F7E08491EDE6F7E09491E82FF8
:104D3000F0E0EE0FFF1FE854F94FA591B491EC910C
:104D4000E92321F461E081E10E94A90661E081E1AB
:104D50000E94D7068CB580618CBD8CB580648CBDFB
:104D600061E08FE00E94D70661E080E10E94D706F3
:104D700080910D028F5F80930D021FBFD8CE61E03E
:104D8000809135030E94D70661E0809136030E942E
:104D9000D70680913503082E000C990BFC01E35CCB
:104DA000F84FE491F0E0EE0FFF1FE852F94F259124
:104DB000349130933B0320933A03FC01E45AF84FBB
:104DC000E491E093420380913603082E000C990B86
:104DD000FC01E35CF84FE491F0E0EE0FFF1FE852B6
:104DE000F94FA591B491B0933D03A0933C03FC010E
:104DF000E45AF84FE491E09343038C91E095E82363
:104E0000EC9395CE80912C0390912D03892B31F05A
:104E100080914F03909150030E94420AE091400319
:104E2000F09141039081809145038095892380838F
:104E3000B1CE8FECE8CE8036910569F480911803ED
:104E400090911903409739F480913303813029F40C
:104E500080E180934E0312E0D9CE8FEAFACFE09141
:104E60004003F0914103808190914503892B808319
:104E7000E2CD8A81813609F486C18B818E3609F0B4
:104E800084C186E08D87CE0105960E9401128E872F
:104E900048E050E068E077E0CE0101960E94702E75
:104EA000CE0101960E9401128F87CE0104960E94C6
:104EB0000112888BCE0107960E940112898BCE01C8
:104EC0000C960E94C41662E08AE00E94D70662E057
:104ED00088E00E94D70662E08BE00E94D70681E05E
:104EE0008093260381E090E0909325038093240330
:104EF000909323038093220385E090E090931F0317
:104F000080931E0384E190E090932103809320031B
:104F10006AEF76E082E193E00E94620582E490E02D
:104F200090931F0380931E0380E390E090932103EE
:104F3000809320036FEE76E082E193E00E946205A9
:104F40008EE490E090931F0380931E0388E390E02B
:104F5000909321038093200366EE76E082E193E054
:104F60000E9462050E94321560ED77E080E090E0DB
:104F70000E942D07809109030E9436160E945D1839
:104F80001092380210923702572C55E0A52EB12C02
:104F900063E0262E312CCC24C394D12C8BE00E94CC
:104FA00080064C01892BC9F480913502909136021C
:104FB000019799F4809133029091340201968330E5
:104FC00091050CF0FEC0909334028093330262E3AB
:104FD00070E080E090E00E942D079092360280926F
:104FE00035020E9432158091D90080FFEFC08AE01F
:104FF00090E090930D0180930C018BE00E9480065D
:10500000892B19F48FEA0E94E51480913102909166
:105010003202019660E177E20E94213390933202DE
:105020008093310289E593E00E943417882E88230B
:10503000C9F08091590380FB882480F880FF12C05A
:10504000E0913902F0913A0280819181823091059C
:1050500009F44DC108F03FC1009709F45FC1019701
:1050600009F44EC185E593E00E943417882309F4C2
:1050700020C28091550380FB992490F880FF19C2CB
:10508000E0913902F0913A0280819181823091055C
:1050900009F485C108F047C1009709F480C1019760
:1050A00009F455C181E593E00E943417882309F47F
:1050B0002AC28091510380FB772470F880FF23C2BD
:1050C000E0913902F0913A0280819181823091051C
:1050D00009F4FDC108F0EFC1009709F40FC2019770
:1050E00009F4FEC120913702309138022730310592
:1050F00084F58090390290903A0281149104A9F0CD
:10510000D4018D919C9111972817390711F1892BA2
:1051100029F412968D919C910E94D733C4010E946C
:10512000D73310923A021092390280903702909051
:105130003802B2E08B16910409F4FAC108F0E5C117
:105140008114910409F414C2F1E08F16910409F45A
:10515000E6C10E945D18E0913902F0913A02808127
:105160009181009709F452C2069710F450900303FE
:10517000511062C2711060C280E090E0892BF9F09A
:105180000E94000001CF81E07DCE87E07BCE82E0EF
:1051900079CE8B81823711F484E074CE88E072CEB0
:1051A0008B81823711F483E06DCE85E06BCE89E090
:1051B00069CE8AE067CE8BE065CE8CE063CE572C5B
:1051C000EDCE109234021092330201CF80910C0187
:1051D00090910D01181619062CF4019790930D016A
:1051E00080930C0180913102909132028436994172
:1051F0000CF40BCF64EF71E080E090E00E942D078B
:105200001092320210923102109236021092350240
:105210008EEA0E94E51480916400816080936400AE
:1052200083B7817F846083BF83B7816083BFE7E6F4
:10523000F7E09491E8E4F7E0849120913002292B83
:105240002093300220912F02292B20932F02E6E396
:10525000F7E02491E22FF0E0EE0FFF1FE15EFD4F3B
:105260002FE235E131832083E82FF0E0EE0FFF1FBE
:10527000E35EF84FA591B4918C9180931E024BE6AA
:1052800050E050931D0240931C02809168008160A1
:1052900080936800E0911C02F0911D028081982BA0
:1052A0009083889583B7816083BF889583B78E7F0D
:1052B00083BF83B78E7F83BF8FB7F894E7E6F7E0AD
:1052C0009491E8E4F7E094918FBF809164008E7F21
:1052D000809364009ACE84309105D1F088F00597D0
:1052E00009F0C0CE828190E00196B1010DC080919D
:1052F000080391E08927809308030E94FA1CB2CE2C
:10530000828190E00196B5010E9421338283AACE6A
:10531000828190E0019667E070E0F6CFD09238028B
:10532000C09237029FCE8430910509F476C0A0F177
:10533000059709F0B7CE8281823089F18111B0C022
:105340000E943616109209030E94FA1CABCE82818D
:10535000843029F41092380210923702A3CE8130A3
:1053600029F430923802209237029CCE811107C076
:1053700082E090E0909338028093370293CE82309F
:1053800019F484E090E0F6CF833009F08BCEB09230
:105390003802A092370286CE8281843029F4D092DE
:1053A0003802C09237027ECE3091FF022091000376
:1053B000811118C0832F90E0019668E170E00E948F
:1053C0002133382F3093FF02209300031092010302
:1053D00081E080930203809303038CEF92E00E94AC
:1053E000C41660CE813049F4822F90E001966CE3C0
:1053F00070E00E942133282FE5CF823021F433233F
:1054000041F03150DFCF8330E9F6222321F02150E3
:10541000D9CF37E1D7CF2BE3D5CF8281863009F4BE
:10542000BECF2091FC0230E02053384F5091FD0256
:105430004091FE02823029F42F5F3F4F205D3740BC
:1054400008C0853069F4215031092F3CF7E03F074F
:10545000A9F72093FC025093FD024093FE02B8CFBF
:10546000813039F4852F6CE00E94013351E0590FEF
:10547000E5CF843029F4513009F47BC35150DECF9D
:10548000811107C0842F6FE10E94013341E0490F71
:10549000D5CF833099F6413009F46DC34150CECF5A
:1054A000813009F0FFCD0E94361681E08093090318
:1054B0004BCF982CF7CD84309105D1F088F005972B
:1054C00009F010CE82818150990BB1010DC08091FD
:1054D000080391E08927809308030E94FA1C02CEFA
:1054E00082818150990BB5010E9421338283FACDCC
:1054F00082818150990B67E070E0F6CFD09238023C
:10550000C0923702EFCD792CEDCD24E082169104C4
:1055100031F1D0F045E08416910409F01ACE83E011
:1055200090E00E943B33DC0111969C928E9214C055
:1055300082E090E00E943B33FC0191828082909354
:105540003A028093390205CE83E090E00E943B331B
:10555000DC0111963C922E9212961C92F0CF83E0C1
:1055600090E00E943B33FC01918280821282E7CF5F
:1055700085E090E00E943B334C01FC0111821082D7
:1055800013821282148282E090E00E943B332FE269
:1055900031E0DC012D933C93F4019383828360918D
:1055A000FF0280910803811103C06D3008F06C5038
:1055B000D40112968D919C91DC01ED91FC910190AA
:1055C000F081E02D409100030995F40184818093DE
:1055D0000A030E94FA1C6091FF0280910803811166
:1055E00003C06D3008F06C50D40112968D919C91DF
:1055F000DC01ED91FC910190F081E02D40910003E0
:10560000099590923A0280923902A3CD6091FF02EF
:1056100080910803811103C06D3008F06C508281C5
:105620009381DC01ED91FC910280F381E02D4091AA
:1056300000030995552453940E945819809039020B
:1056400090903A02F401808191818230910509F4B1
:10565000BBC050F4009709F480C2019709F459C007
:105660000E943215752C88CD8430910509F49AC1B9
:1056700008F4EEC00597A1F781E997E00E94D519DB
:105680009DE0692E712C412CB0921F03A0921E0345
:105690007092210360922003F4018281481247C274
:1056A0001092230310922203D0922503C092240368
:1056B000EE24E394F12C09E010E020E830E0A301AF
:1056C0004150510970E060E082E193E00E942D0EAC
:1056D000F1E04F1609F434C222E06BE777E042169E
:1056E00061F080910903811106C06EE877E082E1E4
:1056F00093E00E94620567E877E082E193E00E9410
:10570000620543943AE0630E711C43E04412BCCF3F
:10571000A7CF83E198E00E94D5192DE0622E712C6D
:10572000412CB0921F03A0921E037092210360923D
:105730002003D40112968C91481227C010922303A3
:1057400010922203D0922503C0922403EE24E39406
:10575000F12C09E010E020E830E0A30141505109AC
:1057600070E060E082E193E00E942D0EB2E061EF14
:1057700077E04B16E9F0B41588F0E1E06AEF77E0E6
:105780004E16B1F063E078E013C0D0922503C092CA
:105790002403D0922303C0922203E8CFF3E062EE09
:1057A00077E04F1629F024E06DED77E04212EACF62
:1057B00082E193E00E94620543943AE0630E711C1B
:1057C00045E04412AECF4CCF80ED97E00E94D51952
:1057D000D0922503C0922403D0922303C0922203C7
:1057E00082E08093260388E290E090931F038093E9
:1057F0001E0387E190E09093210380932003809122
:1058000008036BEC77E0811102C066EC77E082E17F
:1058100093E00E946205B4E1EB2EF12C0BE310E063
:1058200024E130E045E450E06FE070E080E490E097
:105830000E94000F88E2E82EF12C28E230E045E4D7
:1058400050E06DE270E080E490E00E94000F08CF2D
:105850008DEB97E00E94D51982E080932603D092C9
:105860002503C0922403D0922303C092220384E133
:1058700090E090931F0380931E0387E190E0909344
:10588000210380932003809100031F928F938091C6
:10589000FF021F928F9383EB97E09F938F931F924A
:1058A00089E08F9381E090E08C0F9D1F9F938F93F1
:1058B0000E94792EBE016F5F7F4F82E193E00E94CC
:1058C0007A19D40112962C910FB6F894DEBF0FBE50
:1058D000CDBF223008F045C0F3E22F9FC001112454
:1058E0008C01075E1F4FAC014D5D5F4FA4E1EA2EB6
:1058F000F12C24E130E06FE070E04E960E94000F42
:10590000D40112968C91843009F043C0EE24E394C4
:10591000F12C0AE010E020E830E045E350E070E0D0
:1059200060E082E193E00E942D0E1092230310921A
:105930002203D0922503C092240381E080932603A2
:10594000B0921F03A0921E0386E390E09093210380
:10595000809320036EEA77E082E193E00E94620583
:105960007FCE243068F62250330B43E2429FC001C1
:10597000439F900D11248C01075E1F4FAC014D5DBC
:105980005F4FF8E2EF2EF12C28E230E06DE270E09C
:10599000B4CFD0922503C0922403D0922303C092A7
:1059A0002203CBCF85EA97E00E94D51982E080934D
:1059B0002603D0922503C0922403D0922303C092E1
:1059C000220384E190E090931F0380931E0307E17C
:1059D00010E010932103009320034091FE0250E059
:1059E00070E060E02AE082E193E00E94891982E39E
:1059F00090E090931F0380931E0310932103009364
:105A00002003E091FD02E2506CE977E0EB3038F4DE
:105A1000F0E0EE0FFF1FEB5CFE4F6081718182E1D1
:105A200093E00E9462058AE590E090931F038093C3
:105A30001E038EE190E0909321038093200381E088
:105A4000809326034091FC0250E04053584F052EAE
:105A5000000C660B770B2AE082E193E00E94891923
:105A6000F4012281233008F041C0F3E22F9FC001EE
:105A700011248C01075E1F4FAC014D5D5F4F64E147
:105A8000E62EF12C24E130E06FE070E04E960E94AB
:105A9000000FD40112968C91863009F03FC0EE249D
:105AA000E394F12C0AE010E020E830E045E350E018
:105AB00070E060E082E193E00E942D0E10922303DB
:105AC00010922203D0922503C092240381E0809398
:105AD0002603B0921F03A0921E0386E390E09093EA
